:060000000A128A11FC2F18
:100F82008316031386010130831203139000FF308E
:100F92008312031386000A128A11DD270A128A11AC
:100FA2008312031386010A128A11DD270A128A119B
:100FB200C82F0A128A110028F001F10183120313CB
:100FC2008E018F010C1CE62FE72FE32F0C1001304E
:100FD200F0070318F10A0030F1077108803AFF00A8
:100FE20080307F02031DF72F2A307002031CFA2F74
:0E0FF200FB2FDF2F080083010A128A11C12F86
:08400000FF3FFF3FFF3FFF3FC0
:02400E00FA3F77
:00000001FF
