:060000000A128A11FC2F18
:100F8E0083160313860107308100FF30831203138B
:100F9E0086000A128A11E1270A128A11831203139C
:100FAE0086010A128A11E1270A128A11CC2F0A121F
:100FBE008A110028F001F1010B1DE62FE72FE32F18
:100FCE000B110130F0070318F10A0030F107710818
:100FDE00803AFF0080307F02031DF72F2A30700207
:100FEE00031CFA2FFB2FE32F080083010A128A112C
:020FFE00C72FFB
:08400000FF3FFF3FFF3FFF3FC0
:02400E00FA3F77
:00000001FF
