:060000000A128A11FC2F18
:100DDA00F00070088312031399000C1EF52EF62EEC
:100DEA00F22E0C120800803083160313870020307D
:100DFA00980090308312031398001F308316031350
:100E0A009900080002300A128A11AF270A128A11C1
:100E1A0028300A128A11AF270A128A1180300A1260
:100E2A008A11AF270A128A110C300A128A11AF27C7
:100E3A000A128A1106300A128A11AF270A128A1177
:100E4A004130F400EE30F300F30B292FF40B292F75
:100E5A000000080083160313880186010A128A110A
:100E6A0007270A128A110A128A11F8260A128A1107
:100E7A0061300A128A11ED260A128A1161300A12A9
:100E8A008A11ED260A128A11F5007508F800780809
:100E9A000A128A1162270A128A110330F7008A306D
:100EAA00F6005530F500F50B582FF60B582FF70BB7
:100EBA00582F5F2F0A128A110028F2008312031397
:100ECA00881008154130F100EE30F000F00B6B2F5E
:100EDA00F10B6B2F00007208831203138800881528
:100EEA004130F100EE30F000F00B792FF10B792F41
:100EFA0000008312031388114130F100EE30F00034
:100F0A00F00B852FF10B852F00007208F0000330DB
:100F1A000310F00DFF3E031D8D2F0310700D831279
:100F2A0003138800081588154130F100EE30F000EF
:100F3A00F00B9D2FF10B9D2F0000831203138811D4
:100F4A004130F100EE30F000F00BA92FF10BA92F80
:100F5A0000000800F20083120313881008114130C0
:100F6A00F100EE30F000F00BB82FF10BB82F0000B3
:100F7A00720883120313880088154130F100EE309D
:100F8A00F000F00BC62FF10BC62F000083120313DB
:100F9A0088114130F100EE30F000F00BD22FF10B46
:100FAA00D22F00007208F00003300310F00DFF3E4C
:100FBA00031DDA2F0310700D831203138800081122
:100FCA0088154130F100EE30F000F00BEA2FF10BFA
:100FDA00EA2F00008312031388114130F100EE302A
:100FEA00F000F00BF62FF10BF62F0000080083013A
:060FFA000A128A112F2FDC
:08400000FF3FFF3FFF3FFF3FC0
:02400E00FA3F77
:00000001FF
