:060000000A128A11FC2F18
:100E56008316031388010A128A113C270A128A1183
:100E660061300A128A1164270A128A110A128A113B
:100E7600002802300A128A11B0270A128A11283075
:100E86000A128A11B0270A128A1180300A128A11B0
:100E9600B0270A128A110C300A128A11B0270A12D8
:100EA6008A1106300A128A11B0270A128A113430C2
:100EB600F400F130F300F30B5E2FF40B5E2F632F7B
:100EC6000800F2008312031388143430F100F13065
:100ED600F000F00B6C2FF10B6C2F712F7208831240
:100EE6000313880008153430F100F130F000F00BE0
:100EF6007A2FF10B7A2F7F2F8312031308113430C8
:100F0600F100F130F000F00B862FF10B862F8B2FBE
:100F16007208F00003300310F00DFF3E031D8E2F04
:100F26000310700D831203138800881408153430DB
:100F3600F100F130F000F00B9E2FF10B9E2FA32F46
:100F46008312031308113430F100F130F000F00B76
:100F5600AA2FF10BAA2FAF2F0800F200831203135A
:100F660088103430F100F130F000F00BB82FF10B9F
:100F7600B82FBD2F7208831203138800081534306A
:100F8600F100F130F000F00BC62FF10BC62FCB2F7E
:100F96008312031308113430F100F130F000F00B26
:100FA600D22FF10BD22FD72F7208F0000330031087
:100FB600F00DFF3E031DDA2F0310700D831203138D
:100FC6008800881008153430F100F130F000F00B7D
:100FD600EA2FF10BEA2FEF2F831203130811343097
:100FE600F100F130F000F00BF62FF10BF62FFB2F8E
:0A0FF600080083010A128A112B2F54
:08400000FF3FFF3FFF3FFF3FC0
:02400E00FA3F77
:00000001FF
