:060000000A128A11FC2F18
:100F8C00831203131215F001F1018C1CCE2FCF2FFD
:100F9C00CB2F8C100130F0070318F10A0030F10749
:100FAC0002307102A33003197002031CDE2FDF2FF5
:100FBC00CB2F08008316031386017830831203139A
:100FCC009200FF308312031386000A128A11C6277F
:100FDC000A128A118312031386010A128A11C62778
:100FEC000A128A11E72F0A128A11002883010A12A9
:040FFC008A11E02F47
:08400000FF3FFF3FFF3FFF3FC0
:02400E00FA3F77
:00000001FF
