:060000000A128A11FC2F18
:100F6600831603138601013083120313860015309E
:100F7600F2004B30F100BE30F000F00BC02FF10B49
:100F8600C02FF20BC02F00008312031386010B3013
:100F9600F2002630F1005D30F000F00BD02FF10B9F
:100FA600D02FF20BD02FD72F0230831203138600D7
:100FB6001530F2004B30F100BE30F000F00BE12F9F
:100FC600F10BE12FF20BE12F0000831203138601D0
:100FD6000B30F2002630F1005D30F000F00BF12FFF
:100FE600F10BF12FF20BF12FF82FB62F0A128A11FF
:0A0FF600002883010A128A11B32FAC
:08400000FF3FFF3FFF3FFF3FC0
:02400E00FA3F77
:00000001FF
