:060000000A128A11EE2F26
:100E200067346F346F34643420346D346F3472340B
:100E30006E3469346E34673400347E088A007F086B
:100E400082000A128A111D270A128A118000840A60
:100E500004087D0603190034FF0A0319FE0A212F36
:100E6000F2008312031307143430F100F130F00064
:100E7000F00B382FF10B382F3D2F7208831203131C
:100E8000860087143430F100F130F000F00B462F6B
:100E9000F10B462F4B2F8312031387103430F100D0
:100EA000F130F000F00B522FF10B522F572F0800AA
:100EB000F2008312031307103430F100F130F00018
:100EC000F00B602FF10B602F652F72088312031354
:100ED000860087143430F100F130F000F00B6E2FF3
:100EE000F10B6E2F732F8312031387103430F10030
:100EF000F130F000F00B7A2FF10B7A2F7F2F0800E2
:100F000002300A128A1158270A128A1138300A123E
:100F10008A1158270A128A1180300A128A1158271A
:100F20000A128A110C300A128A1158270A128A11E1
:100F300006300A128A1158270A128A113430F40036
:100F4000F130F300F30BA22FF40BA22FA72F080010
:100F500083160313860187010A128A1180270A1259
:100F60008A1180300A128A1158270A128A112030F9
:100F700084002F30F5000408F6000D30F7007508E6
:100F8000840083130008F800F50A760884007808C6
:100F90008000F60AF70BBF2F83120313AD01AE01D9
:100FA000E22F2D08203E840000080A128A11302703
:100FB0000A128A11013083120313AD070318AE0A17
:100FC0000030AE072D08203E840083130008031D67
:100FD000EA2FEB2FD12F0A128A11002883133C30FD
:100FE000FD000730FE001030FF002F3084000A1291
:100FF0008A1121270A128A1183010A128A11A82F45
:08400000FF3FFF3FFF3FFF3FC0
:02400E00FA3F77
:00000001FF
