:060000000A128A110C280F
:10000800FE00030EF0000A08F1000A128A113F28C8
:100018000A128A110F2883010A128A1113288316DB
:1000280003130614071088108B170B160B17810182
:10003800831203130710031083120313881C03147D
:10004800031827282B288312031388142E288312B9
:10005800031388101A30F4005E30F3006E30F2009B
:10006800F20B3428F30B3428F40B342800001F2833
:100078000A128A110C288B1C422843284828013070
:100088008312031387068B1071088A00700E830091
:06009800FE0E7E0E0900C1
:08400000FF3FFF3FFF3FFF3FC0
:02400E00FA3F77
:00000001FF
