:060000000A128A11FC2F18
:100F7600F2007208831203138600071087143430B8
:100F8600F100F130F000F00BC62FF10BC62FCB2F7E
:100F96008312031387100800F200720883120313EA
:100FA6008600071487143430F100F130F000F00B9E
:100FB600DA2FF10BDA2FDF2F8312031387100800C5
:100FC600831603138601870138300A128A11BB275C
:100FD6000A128A1180300A128A11BB270A128A1154
:100FE60041300A128A11CF270A128A110A128A116F
:0A0FF600002883010A128A11E32F7C
:08400000FF3FFF3FFF3FFF3FC0
:02400E00FA3F77
:00000001FF
