:060000000A128A11EE2F26
:100D920047346F346F34643420344D346F347234DA
:100DA2006E3469346E34673400347E088A007F08FA
:100DB20082000A128A11D6260A128A118000840A37
:100DC20004087D0603190034FF0A0319FE0ADA2E0D
:100DD20002300A128A11A2270A128A1128300A1234
:100DE2008A11A2270A128A1180300A128A11A227B6
:100DF2000A128A110C300A128A11A2270A128A11C7
:100E020006300A128A11A2270A128A113430F4001B
:100E1200F130F300F30B0B2FF40B0B2F102F080004
:100E22008316031388010A128A11E9260A128A110B
:100E320080300A128A11A2270A128A1120308400F5
:100E42002F30F5000408F6000D30F7007508840015
:100E520083130008F800F50A7608840078088000F9
:100E6200F60AF70B272F83120313AD01AE014A2FA7
:100E72002D08203E840000080A128A1156270A1201
:100E82008A11013083120313AD070318AE0A003032
:100E9200AE072D08203E840083130008031D522F45
:100EA200532F392F0A128A110028F20083120313DA
:100EB20088143430F100F130F000F00B5E2FF10BAA
:100EC2005E2F632F720883120313880008153430D3
:100ED200F100F130F000F00B6C2FF10B6C2F712F41
:100EE2008312031308113430F100F130F000F00BDB
:100EF200782FF10B782F7D2F7208F000033003104A
:100F0200F00DFF3E031D802F0310700D831203139B
:100F12008800881408153430F100F130F000F00B2D
:100F2200902FF10B902F952F831203130811343059
:100F3200F100F130F000F00B9C2FF10B9C2FA12F50
:100F42000800F2008312031388103430F100F130EC
:100F5200F000F00BAA2FF10BAA2FAF2F7208831209
:100F62000313880008153430F100F130F000F00B63
:100F7200B82FF10BB82FBD2F831203130811343091
:100F8200F100F130F000F00BC42FF10BC42FC92F88
:100F92007208F00003300310F00DFF3E031DCC2F4A
:100FA2000310700D83120313880088100815343063
:100FB200F100F130F000F00BDC2FF10BDC2FE12F10
:100FC2008312031308113430F100F130F000F00BFA
:100FD200E82FF10BE82FED2F080083133C30FD00C2
:100FE2000630FE00C930FF002F3084000A128A1139
:0E0FF200DA260A128A1183010A128A11112FBF
:08400000FF3FFF3FFF3FFF3FC0
:02400E00FA3F77
:00000001FF
