:100000000A128A11FC2F00308A000408840A820731
:100010000034203445346E34743465347234203402
:1000200074346834653420346C3465347434743416
:10003000653472347334203469346E3420346B3454
:100040006534793462346F346134723464340A3420
:060050000D340D340034F4
:100F2E00831203138C1E9C2F9D2F972F8C121A0841
:100F3E000800F00070088312031399000C1EA82FEE
:100F4E00A92FA52F0C12080020308316031398002A
:100F5E0090308312031398001F30831603139900E9
:100F6E00831203138C120C120800F200CE2F72089B
:100F7E0084000A128A1103200A128A110A128A1197
:100F8E00A0270A128A110130F1007108F2077208C7
:100F9E0084000A128A1103200A128A11003A031DD4
:100FAE00D92FDA2FBE2F08008316031307138717C6
:100FBE000A128A11AB270A128A1101300A128A11FB
:100FCE00BC270A128A110A128A1197270A128A114D
:100FDE00F3007308F40074080A128A11A0270A128B
:100FEE008A11EA2F0A128A11002883010A128A1125
:020FFE00DB2FE7
:08400000FF3FFF3FFF3FFF3FC0
:02400E00FA3F77
:00000001FF
