:060000000A128A11E12F33
:100C38002034483469346934693400347E088A00C1
:100C48007F0882000A128A1122260A128A1180005D
:100C5800840A04087D0603190034FF0A0319FE0AF2
:100C6800262EF200720883120313860007148714D5
:100C78003430F100F130F000F00B402EF10B402E33
:100C8800452E8312031387100800F200720883129E
:100C980003138600071087143430F100F130F00098
:100CA800F00B542EF10B542E592E83120313871078
:100CB800080002300A128A1149260A128A113830AD
:100CC8000A128A1149260A128A110C300A128A114C
:100CD80049260A128A1106300A128A1149260A126E
:100CE8008A113430F400F130F300F30B792EF40B51
:100CF800792E7E2E080047346F346F3464342034E4
:100D08004D346F3472346E3469346E3467342C3435
:100D1800003447346F346F34643420344D346F34C6
:100D280072346E3469346E346734003447346F3447
:100D38006F34643420344D346F3472346E34693413
:100D48006E346734003447346F346F34643420347D
:100D58004D346F3472346E3469346E346734003411
:100D680083160313860187010A128A115D260A1267
:100D78008A1180300A128A1149260A128A112030F3
:100D88008400A030F5000408F6000E30F70075085E
:100D9800840083130008F800F50A760884007808B0
:100DA8008000F60AF70BCB2E83120313DB01DC015C
:100DB800EE2E5B08203E840000080A128A113526B0
:100DC8000A128A11013083120313DB070318DC0AA5
:100DD8000030DC075B08203E840083130008031DF5
:100DE800F62EF72EDD2EC0300A128A1149260A1275
:100DF8008A112E308400C830F5000408F6000D3042
:100E0800F7007508840083130008F800F50A7608CF
:100E1800840078088000F60AF70B052F8312031365
:100E2800DD01DE01282F5D082E3E840000080A122D
:100E38008A1135260A128A11013083120313DD073D
:100E48000318DE0A0030DE075D082E3E8400831397
:100E58000008031D302F312F172F94300A128A11E2
:100E680049260A128A113B308400BB30F500040879
:100E7800F6000D30F7007508840083130008F800A9
:100E8800F50A7608840078088000F60AF70B3F2FE9
:100E980083120313DF01E001622F5F083B3E8400E9
:100EA80000080A128A1135260A128A1101308312A3
:100EB8000313DF070318E00A0030E0075F083B3E32
:100EC800840083130008031D6A2F6B2F512FD43021
:100ED8000A128A1149260A128A1148308400AE3053
:100EE800F5000408F6000D30F70075088400831338
:100EF8000008F800F50A7608840078088000F60AE9
:100F0800F70B792F83120313E101E2019C2F61088B
:100F1800483E840000080A128A1135260A128A11EE
:100F2800013083120313E1070318E20A0030E207D5
:100F38006108483E840083130008031DA42FA52FD1
:100F48008B2F8F300A128A1149260A128A115530BE
:100F5800840083120313650883138000840A6608DB
:100F68008000840A67088000840A68088000840A70
:100F780069088000840A6A088000E301E401D52F2B
:100F88006308553E840000080A128A1135260A12A1
:100F98008A11013083120313E3070318E40A0030AF
:100FA800E4076308553E840083130008031DDD2F02
:100FB800DE2FC42F0A128A1100288313D530FD00B2
:100FC8000630FE007F30FF00A03084000A128A112C
:100FD80026260A128A116B30FD000630FE001C30EE
:100FE800FF00653084000A128A1126260A128A1127
:080FF80083010A128A11B42ED4
:08400000FF3FFF3FFF3FFF3FC0
:02400E00FA3F77
:00000001FF
