:100000000A128A11FA2F00308A000408840A820733
:10001000003420346D3465346D342034523465340A
:100020006134643469346E3467342E342E342E34A3
:100030000034653478347434653472346E34613429
:100040006C34203465346534703472346F346D34FC
:1000500000346D3465346D3420347734723469344F
:0A006000743469346E3467340034E0
:100B3A00831203138C1DA22DA32D9D2D8C11080049
:100B4A008316031391140A128A119D250A128A1117
:100B5A0008008316031311150A128A119D250A1219
:100B6A008A1108008316031311140A128A119D258B
:100B7A000A128A11080083160313911611160A1213
:100B8A008A119D250A128A110800831603139115EA
:100B9A000A128A119D250A128A1183120313130855
:100BAA000800F00070088312031393000A128A11D6
:100BBA009D250A128A1183160313111BE52DE62DB2
:100BCA00D72D0800831603130716071AED2DF12DEA
:100BDA00831603138715F42D831603138711283000
:100BEA00831203139400FF30831603139300080043
:100BFA00F4000F2E740884000A128A1103200A12C4
:100C0A008A110A128A113D260A128A110130F3004A
:100C1A007308F407740884000A128A1103200A125E
:100C2A008A11003A031D1A2E1B2EFF2D0800F00010
:100C3A007008831203138600071087100715F10145
:100C4A00F2010130F1070318F20A0030F2077208C4
:100C5A00803AFF0080307F02031D352E0A30710270
:100C6A00031C382E392E262E83120313071108006F
:100C7A00F000700883120313860007148710071503
:100C8A00F101F2010130F1070318F20A0030F2070C
:100C9A007208803AFF0083307F02031D562EE83027
:100CAA007102031C592E5A2E472E83120313071161
:100CBA00080083160313071187100710003007185E
:100CCA000130860038300A128A111C260A128A114B
:100CDA000C300A128A111C260A128A1106300A12CC
:100CEA008A111C260A128A1180300A128A111C26BD
:100CFA000A128A110800F3000A128A11B7250A1289
:100D0A008A11A0300A128A11D6250A128A110030D5
:100D1A000A128A11D6250A128A1173080A128A112E
:100D2A00D6250A128A11A92E710884000A128A117C
:100D3A0003200A128A110A128A11D6250A128A1166
:100D4A000130F2007208F107710884000A128A1150
:100D5A0003200A128A11003A031DB42EB52E992EC9
:100D6A000A128A11AE250A128A110800F2000A1222
:100D7A008A11A5250A128A11A0308312031393003F
:100D8A000A128A119D250A128A1183160313111B4E
:100D9A00CF2ED02EBC2E00300A128A11D6250A1266
:100DAA008A1172080A128A11D6250A128A110A129F
:100DBA008A11A5250A128A11A1300A128A11D6258A
:100DCA000A128A110A128A11CA250A128A11F10014
:100DDA007108F3000A128A11C0250A128A110A122E
:100DEA008A11AE250A128A11730808000A128A119A
:100DFA005E260A128A110A128A11E7250A128A1134
:100E0A0021300A128A11FD250A128A111130F500C1
:100E1A007508F10000300A128A1180260A128A1116
:100E2A00F601F7010130F6070318F70A0030F70751
:100E3A007708803AFF00A7307F02031D262F103063
:100E4A007602031C292F2A2F172F80300A128A11A3
:100E5A001C260A128A1101300A128A11FD250A1269
:100E6A008A11F801F9010130F8070318F90A00306C
:100E7A00F9077908803AFF0083307F02031D472F64
:100E8A00E8307802031C4A2F4B2F382FC0300A1241
:100E9A008A111C260A128A1100300A128A11BB26EC
:100EAA000A128A110A128A113D260A128A1101307F
:100EBA000A128A11BB260A128A110A128A113D26BF
:100ECA000A128A1102300A128A11BB260A128A11E0
:100EDA000A128A113D260A128A1103300A128A114D
:100EEA00BB260A128A110A128A113D260A128A118F
:100EFA0004300A128A11BB260A128A110A128A11AE
:100F0A003D260A128A1105300A128A11BB260A12D4
:100F1A008A110A128A113D260A128A1106300A1209
:100F2A008A11BB260A128A110A128A113D260A124E
:100F3A008A1107300A128A11BB260A128A110A126A
:100F4A008A113D260A128A1108300A128A11BB2612
:100F5A000A128A110A128A113D260A128A110930C6
:100F6A000A128A11BB260A128A110A128A113D260E
:100F7A000A128A110A300A128A11BB260A128A1127
:100F8A000A128A113D260A128A110B300A128A1194
:100F9A00BB260A128A110A128A113D260A128A11DE
:100FAA000C300A128A11BB260A128A110A128A11F5
:100FBA003D260A128A110D300A128A11BB260A121C
:100FCA008A110A128A113D260A128A110E300A1251
:100FDA008A11BB260A128A110A128A113D260A129E
:100FEA008A11F62F0A128A110028FA01FB018301DD
:060FFA000A128A11FB2E11
:08400000FF3FFF3FFF3FFF3FC0
:02400E00FA3F77
:00000001FF
