:100000000A128A11EC2F00308A000408840A820741
:100010000034203445346E34743465347234203402
:1000200074346834653420344B3465347934203486
:0200300000349A
:100A8E00F0308316031388008312031388010800C5
:100A9E003734383439342F343434353436342A3408
:100AAE003134323433342D34433430343D342B34FA
:100ABE007E088A007F0882000A128A115F250A12B8
:100ACE008A118000840A04087D0603190034FF0A87
:100ADE000319FE0A632D02300A128A11B0250A127A
:100AEE008A1128300A128A11B0250A128A110E3084
:100AFE000A128A11B0250A128A1106300A128A11B8
:100B0E00B0250A128A1180300A128A11B0250A12F3
:100B1E008A110800F400A32D740884000A128A11A9
:100B2E0003200A128A110A128A11FC250A128A114E
:100B3E000130F3007308F407740884000A128A1156
:100B4E0003200A128A11003A031DAE2DAF2D932DEC
:100B5E000800F2008312031307113430F100F13054
:100B6E00F000F00BB82DF10BB82DBD2D72088312CD
:100B7E000313870087153430F100F130F000F00BCD
:100B8E00C62DF10BC62DCB2D8312031387113430D6
:100B9E00F100F130F000F00BD22DF10BD22DD72D4C
:100BAE007208F00003300310F00DFF3E031DDA2D26
:100BBE000310700D8312031387000711871534304D
:100BCE00F100F130F000F00BEA2DF10BEA2DEF2DD4
:100BDE008312031387113430F100F130F000F00B63
:100BEE00F62DF10BF62DFB2D0800F20083120313E8
:100BFE0007153430F100F130F000F00B042EF10B3C
:100C0E00042E092E720883120313870087153430C1
:100C1E00F100F130F000F00B122EF10B122E172E08
:100C2E008312031387113430F100F130F000F00B12
:100C3E001E2EF10B1E2E232E7208F0000330031011
:100C4E00F00DFF3E031D262E0310700D83120313AD
:100C5E008700071587153430F100F130F000F00BE6
:100C6E00362EF10B362E3B2E8312031387113430A2
:100C7E00F100F130F000F00B422EF10B422E472E18
:100C8E0008008316031387010A128A1172250A12AD
:100C9E008A110A128A1147250A128A1180300A1205
:100CAE008A11B0250A128A1101300A128A11912571
:100CBE000A128A11C7300A128A11B0250A128A1135
:100CCE000A128A11A1260A128A11F5007508F60079
:100CDE0076080A128A11FC250A128A11C8300A12E5
:100CEE008A11B0250A128A110A128A11A1260A1235
:100CFE008A11F5007508F60076080A128A11FC258D
:100D0E000A128A11C9300A128A11B0250A128A11E2
:100D1E000A128A11A1260A128A11F5007508F60028
:100D2E0076080A128A11FC250A128A11612E0A12FD
:100D3E008A110028831203138801081EA72EA82EDD
:100D4E006A2F881EAB2EAC2E6A2F081FAF2EB02E28
:100D5E006A2F881BB32EB42EA42E6A2F0330F200F6
:100D6E000830F1007730F000F00BBB2EF10BBB2EEC
:100D7E00F20BBB2E83120313081088158819C82E88
:100D8E00CC2E831203130815CF2E831203130811D2
:100D9E000819D22ED62E831203138814D92E83123D
:100DAE0003138810081EDC2EDD2EE92E881EE02E81
:100DBE00E12EE92E081FE42EE52EE92E881BE82EE3
:100DCE00E92EEB2EF8017A2F881088158819F02E4F
:100DDE00F42E831203130815F72E83120313081132
:100DEE000819FA2EFE2E831203130814012F8312F4
:100DFE0003130810081E042F052F112F881E082F0D
:100E0E00092F112F081F0C2F0D2F112F881B102F9C
:100E1E00112F142FF801F80A7A2F08118815881946
:100E2E00192F1D2F831203130814202F831203135F
:100E3E0008100818232F272F8312031388142A2F24
:100E4E00831203138810081E2D2F2E2F3A2F881E63
:100E5E00312F322F3A2F081F352F362F3A2F881B5E
:100E6E00392F3A2F3F2F0230F0007008F8007A2FFA
:100E7E00881108140818442F482F831203130815DD
:100E8E004B2F83120313081108194E2F522F831262
:100E9E0003138814552F831203138810081E582F1E
:100EAE00592F652F881E5C2F5D2F652F081F602F11
:100EBE00612F652F881B642F652F6A2F0330F0007A
:100ECE007008F8007A2F081E6D2F6E2FB52E881E13
:100EDE00712F722FB52E081F752F762FB52E881FE6
:100EEE00792F7A2FB52E081A7D2F7E2F8C2F881EE4
:100EFE00812F822F8C2F081F852F862F8C2F881FD6
:100F0E00892F8A2F8C2FF701C92F081E8F2F902F14
:100F1E009F2F881A932F942F9F2F081F972F982F4C
:100F2E009F2F881F9B2F9C2F9F2FF701F70AC92FEA
:100F3E00081EA22FA32FB42F881EA62FA72FB42FC3
:100F4E00081BAA2FAB2FB42F881FAE2FAF2FB42F95
:100F5E000230F0007008F700C92F081EB72FB82F07
:100F6E00C92F881EBB2FBC2FC92F081FBF2FC02F04
:100F7E00C92F881BC32FC42FC92F0330F000700850
:100F8E00F700C92F081ECC2FCD2FC92F881ED02FAA
:100F9E00D12FC92F081FD42FD52FC92F881FD82F77
:100FAE00D92FC92F7808F00002300310F00DFF3E44
:100FBE00031DDC2F20307007F10077087107F20057
:100FCE007208840083130008080083133030FD007C
:100FDE000530FE004F30FF00203084000A128A11C7
:100FEE0063250A128A11F701F80183010A128A1188
:020FFE00482E7B
:08400000FF3FFF3FFF3FFF3FC0
:02400E00FA3F77
:00000001FF
