:060000000A128A11EE2F26
:10038E008530831203139F00C030831603139F0022
:10039E0008007E088A007F0882000A128A11D02186
:1003AE000A128A118000840A04087D06031900349B
:1003BE00FF0A0319FE0AD429831203134108C3004E
:1003CE004008C2004208AE004308AF00B001B101C0
:1003DE00C830B2000030B3000A128A11AF250A12DB
:1003EE008A11080049344E34503455345434203474
:1003FE0056344F344C3454344134473445343A3403
:10040E00003441344434433420344F34553454345E
:10041E005034553454343A34003402300A128A11AE
:10042E00BD220A128A1128300A128A11BD220A121E
:10043E008A1180300A128A11BD220A128A110C30DA
:10044E000A128A11BD220A128A1106300A128A1164
:10045E00BD220A128A1101300A128A11BD220A1215
:10046E008A114130F400EE30F300F30B3C2AF40B0A
:10047E003C2A00000800700871040319472A482A14
:10048E00772AF501F50A562A01300310F00DF10D09
:10049E00FF3E031D4C2A0130F4007408F507F11FCE
:1004AE00592A5A2A4B2A71087302031D602A7008B2
:1004BE007202031C632A642A6A2A7008F202710807
:1004CE00031CF303F30201300310F10CF00CFF3E9A
:1004DE00031D6B2A0130F502031D762A772A5A2A4C
:1004EE007308F1007208F0000800F2008312031383
:1004FE0007147208F00004300310F00CFF3E031DC9
:10050E00832A70080F39860087144130F100EE30CF
:10051E00F000F00B902AF10B902A000083120313C7
:10052E0087104130F100EE30F000F00B9C2AF10BF9
:10053E009C2A000072080F39831203138600871459
:10054E004130F100EE30F000F00BAB2AF10BAB2A8C
:10055E0000008312031387104130F100EE30F000DB
:10056E00F00BB72AF10BB72A00000800F200831235
:10057E00031307107208F00004300310F00CFF3E56
:10058E00031DC42A70080F39860087144130F1000C
:10059E00EE30F000F00BD12AF10BD12A00008312BD
:1005AE00031387104130F100EE30F000F00BDD2A1E
:1005BE00F10BDD2A000072080F3983120313860037
:1005CE0087144130F100EE30F000F00BEC2AF10B05
:1005DE00EC2A00008312031387104130F100EE3035
:1005EE00F000F00BF82AF10BF82A00000800F501D4
:1005FE00F601700871040319052B062B3D2BF7012C
:10060E00F70A142B01300310F00DF10DFF3E031D00
:10061E000A2B0130F4007408F707F11F172B182B63
:10062E00092B01300310F50DF60DFF3E031D192B9E
:10063E0071087302031D252B70087202031C282BF0
:10064E00292B302B7008F2027108031CF303F302FE
:10065E00751401300310F10CF00CFF3E031D312B0D
:10066E000130F702031D3C2B3D2B182B7608F100B1
:10067E007508F00008000030FC000030FB00003070
:10068E00FA000030F900701C4D2B4E2B652B7408B0
:10069E00F907750803110318013E0319572BFA07C2
:1006AE00760803110318013E03195E2BFB0777082A
:1006BE0003110318013E0319652BFC070130F800E6
:1006CE000310F40DF50DF60DF70DF80B672B013039
:1006DE000310F30CF20CF10CF00CFF3E031D6F2B0C
:1006EE007308720471047004031D7E2B7F2B4A2B3A
:1006FE007C08F3007B08F2007A08F1007908F0001C
:10070E00080083160313860187010A128A11C72176
:10071E000A128A110A128A1114220A128A110A1254
:10072E008A119D240A128A11831203131F151F1991
:10073E00A12BA22B9E2B413083120313C500ED304B
:10074E00C400C40BA82BC50BA82BAD2B831203130F
:10075E001E08C700831603131E0883120313C60058
:10076E008C300A128A11BD220A128A1183120313C7
:10077E004708FA004608F9000A128A115C260A1286
:10078E008A11CF300A128A11BD220A128A118312DF
:10079E0003134708C1004608C0000A128A11E3215C
:1007AE000A128A119B2B0A128A110028F601F31FD6
:1007BE00E12BE22BE92BF209F309F20A0319F30AF2
:1007CE00F601F60AF11FEC2BED2BF22BF009F109D5
:1007DE00F00A0319F10A700871040319F72BF82BAC
:1007EE00272CF501F50A062C01300310F00DF10D42
:1007FE00FF3E031DFC2B0130F4007408F507F11FBA
:10080E00092C0A2CFB2B71087302031D102C700887
:10081E007202031C132C142C1A2C7008F20271088D
:10082E00031CF303F30201300310F10CF00CFF3E36
:10083E00031D1B2C0130F502031D262C272C0A2C20
:10084E00760803192B2C2C2C312CF209F309F20A01
:10085E000319F30A7308F1007208F0000800F6019C
:10086E00F11F3A2C3B2C422CF009F109F00A031926
:10087E00F10AF601F60AF31F452C462C4F2CF2090D
:10088E00F309F20A0319F30A0130F4007408F606AC
:10089E00F701F801700871040319562C572C8E2C91
:1008AE00F501F50A652C01300310F00DF10DFF3E38
:1008BE00031D5B2C0130F4007408F507F11F682C42
:1008CE00692C5A2C01300310F70DF80DFF3E031D55
:1008DE006A2C71087302031D762C70087202031CB9
:1008EE00792C7A2C812C7008F2027108031CF30308
:1008FE00F302771401300310F10CF00CFF3E031DD0
:10090E00822C0130F502031D8D2C8E2C692C76085D
:10091E000319922C932C982CF709F809F70A03194E
:10092E00F80A7808F1007708F00008002F308400EC
:10093E005730F3000408F4000C30F50073088400FF
:10094E0083130008F600F30A74088400760880000A
:10095E00F40AF50BA52C203084004830F30004086F
:10096E00F4000F30F5007308840083130008F600BE
:10097E00F30A7408840076088000F40AF50BBA2C8A
:10098E0080300A128A11BD220A128A1183120313B1
:10099E00BB01BC01E32C3B082F3E840000080A1269
:1009AE008A117C220A128A11013083120313BB07AB
:1009BE000318BC0A0030BC073B082F3E840083138B
:1009CE000008031DEB2CEC2CD22CC0300A128A111D
:1009DE00BD220A128A1183120313BD01BE01082D16
:1009EE003D08203E840000080A128A117C220A1259
:1009FE008A11013083120313BD070318BE0A00309B
:100A0E00BE073D08203E840083130008031D102DF1
:100A1E00112DF72C080083120313A901A31F182D03
:100A2E00192D262DA009A109A209A309A00A0319AF
:100A3E00A10A0319A20A0319A30AA901A90AA71F49
:100A4E00292D2A2D392DA409A509A609A709A40A1D
:100A5E000319A50A0319A60A0319A70A0130FD00F6
:100A6E007D08A9060030AD000030AC000030AB00B0
:100A7E000030AA0023082204210420040319482D63
:100A8E00492D962DA801A80A592D0130FD000310FD
:100A9E00A00DA10DA20DA30DFD0B4E2D0130FD00DD
:100AAE007D08A807A31F5C2D5D2D4C2D0130FD0088
:100ABE000310AA0DAB0DAC0DAD0DFD0B5F2D230874
:100ACE002702031D742D22082602031D742D2108F2
:100ADE002502031D742D20082402031C772D782D6A
:100AEE00872D2008A4022108031C210FA50222082D
:100AFE00031C220FA6022308031C230FA7022A148D
:100B0E0001300310A30CA20CA10CA00CFF3E031D80
:100B1E00882D0130A802031D952D962D5D2D2908D7
:100B2E0003199A2D9B2DA62DAA09AB09AC09AD0967
:100B3E00AA0A0319AB0A0319AC0A0319AD0A2D0848
:100B4E00A3002C08A2002B08A1002A08A000080070
:100B5E00831203133208A0003308A1000030A11B3A
:100B6E00FF30A200A3003108F3003008F2002F0876
:100B7E00F1002E08F0000030F7000030F6000030D3
:100B8E00F5006430F4000A128A1142230A128A1107
:100B9E00730883120313A7007208A6007108A5003C
:100BAE007008A4000A128A1112250A128A118312E1
:100BBE0003132108BB002008BA000A30F0000030F1
:100BCE00F1003B08F3003A08F2000A128A114222A1
:100BDE000A128A11710883120313BF007008BE0037
:100BEE000A30F0000030F1003B08F3003A08F20042
:100BFE000A128A11FE220A128A1171088312031335
:100C0E00BD007008BC003F08B5003E08B4000A30B5
:100C1E00F0000030F1003D08F3003C08F2000A122B
:100C2E008A1142220A128A11710883120313BF001D
:100C3E007008BE003F08B7003E08B6000A30F0004C
:100C4E000030F1003D08F3003C08F2000A128A1150
:100C5E00FE220A128A11710883120313BF00700854
:100C6E00BE003F08B9003E08B8003808303E0A12F0
:100C7E008A117C220A128A112E300A128A117C22C3
:100C8E000A128A11831203133608303E0A128A1191
:100C9E007C220A128A11831203133408303E0A1280
:100CAE008A117C220A128A11080000307A020A3058
:100CBE00031979020318642E652E6D2E7908303EC5
:100CCE000A128A117C220A128A11ED2F00307A0242
:100CDE000A3003197902031C752E762EBA2E0030B7
:100CEE007A0264300319790203187E2E7F2EBA2EF3
:100CFE000A30F0000030F1007A08F3007908F200B3
:100D0E000A128A1142220A128A11710883120313DF
:100D1E00AD007008AC002D08A7002C08A6000A3004
:100D2E00F0000030F1007A08F3007908F2000A12A0
:100D3E008A11FE220A128A11710883120313A90066
:100D4E007008A8002808303E0A128A117C220A1266
:100D5E008A11831203132608303E0A128A117C224E
:100D6E000A128A11ED2F00307A02643003197902CB
:100D7E00031CC22EC32E3A2F03307A02E830031919
:100D8E0079020318CB2ECC2E3A2F0A30F000003009
:100D9E00F1007A08F3007908F2000A128A11422251
:100DAE000A128A11710883120313AD007008AC0089
:100DBE000A30F0000030F1007A08F3007908F200F2
:100DCE000A128A11FE220A128A1171088312031363
:100DDE00AB007008AA002D08A7002C08A6000A3048
:100DEE00F0000030F1002B08F3002A08F2000A127E
:100DFE008A11DD230A128A11710883120313AD00C2
:100E0E007008AC002D08A9002C08A8000A30F000CC
:100E1E000030F1002B08F3002A08F2000A128A11A2
:100E2E0036240A128A11710883120313A500700862
:100E3E00A4002408303E0A128A117C220A128A115A
:100E4E00831203132808303E0A128A117C220A12DA
:100E5E008A11831203132608303E0A128A117C224D
:100E6E000A128A11ED2F03307A02E8300319790243
:100E7E00031C422F432FED2F27307A020F30031918
:100E8E00790203184B2F4C2FED2F0A30F000003053
:100E9E00F1007A08F3007908F2000A128A11422250
:100EAE000A128A11710883120313AD007008AC0088
:100EBE000A30F0000030F1007A08F3007908F200F1
:100ECE000A128A11FE220A128A1171088312031362
:100EDE00AB007008AA002D08A7002C08A6000A3047
:100EEE00F0000030F1002B08F3002A08F2000A127D
:100EFE008A11DD230A128A11710883120313AD00C1
:100F0E007008AC002D08A9002C08A8000A30F000CB
:100F1E000030F1002B08F3002A08F2000A128A11A1
:100F2E0036240A128A11710883120313A300700863
:100F3E00A2000A30F0000030F1002308F30022086E
:100F4E00F2000A128A11DD230A128A117108831225
:100F5E000313AD007008AC002D08A5002C08A400EA
:100F6E000A30F0000030F1002308F3002208F200EE
:100F7E000A128A1136240A128A1171088312031377
:100F8E00A1007008A0002008303E0A128A117C22AF
:100F9E000A128A11831203132408303E0A128A1190
:100FAE007C220A128A11831203132808303E0A1279
:100FBE008A117C220A128A11831203132608303EEC
:100FCE000A128A117C220A128A11ED2F080083134D
:100FDE006330FD000130FE00F930FF004830840020
:100FEE000A128A11D4210A128A1183010A128A1155
:020FFE00882B3E
:08400000FF3FFF3FFF3FFF3FC0
:02400E00FA3F77
:00000001FF
