:060000000A128A11EE2F26
:100F0E00C034F934A434B034993492348234F83481
:100F1E00803490347E088A007F0882000A128A117B
:100F2E0091270A128A118000840A04087D0603198B
:100F3E000034FF0A0319FE0A952F83160313860148
:100F4E00203084002C30F0000408F1000A30F2004A
:100F5E007008840083130008F300F00A71088400FF
:100F6E0073088000F10AF20BAF2F83120313AA014C
:100F7E00AB01831203132A08203E8400831300085A
:100F8E0086001530F2004B30F100BE30F000F00B51
:100F9E00CE2FF10BCE2FF20BCE2F0000013083128D
:100FAE000313AA070318AB0A0030AB072B08803ACD
:100FBE00FF0080307F02031DE62F0A302A02031C39
:100FCE00E92FEA2FC02FBC2F0A128A110028831393
:100FDE003630FD000730FE008730FF002C308400D5
:100FEE000A128A1195270A128A1183010A128A118E
:020FFE00A42F1E
:08400000FF3FFF3FFF3FFF3FC0
:02400E00FA3F77
:00000001FF
