:060000000A128A11FC2F18
:100F62008316031387016430920083120313121550
:100F72000F309700F001F1017008831203139500FE
:100F82004130F300EE30F200F20BC52FF30BC52F08
:100F920000000130F0070318F10A0030F107710870
:100FA200803AFF0080307F02031DD92F6530700226
:100FB200031CDC2FDD2FBD2F6430F0000030F10068
:100FC20070088312031395004130F300EE30F200F3
:100FD200F20BE92FF30BE92F0000FF30F0070318A3
:100FE200F10AFF30F107F11FF72FF82FE12FBB2F86
:0E0FF2000A128A11002883010A128A11B12FF7
:08400000FF3FFF3FFF3FFF3FC0
:02400E00FA3F77
:00000001FF
