:060000000A128A11FC2F18
:100D8C00831203138C1ECB2ECC2EC62E8C121A085B
:100D9C0008008030831603138700203098009030B1
:100DAC008312031398001F30831603139900080055
:100DBC0002300A128A1153270A128A1128300A1299
:100DCC008A1153270A128A1180300A128A1153276A
:100DDC000A128A110C300A128A1153270A128A112C
:100DEC0006300A128A1153270A128A114130F40074
:100DFC00EE30F300F30B002FF40B002F0000080073
:100E0C00F20083120313881008154130F100EE3004
:100E1C00F000F00B0F2FF10B0F2F00007208831254
:100E2C000313880088154130F100EE30F000F00B10
:100E3C001D2FF10B1D2F000083120313881141305D
:100E4C00F100EE30F000F00B292FF10B292F0000F0
:100E5C007208F00003300310F00DFF3E031D312F1C
:100E6C000310700D83120313880008158815413088
:100E7C00F100EE30F000F00B412FF10B412F000090
:100E8C008312031388114130F100EE30F000F00BA7
:100E9C004D2FF10B4D2F00000800F20083120313AD
:100EAC00881008114130F100EE30F000F00B5C2F8F
:100EBC00F10B5C2F00007208831203138800881555
:100ECC004130F100EE30F000F00B6A2FF10B6A2F7D
:100EDC0000008312031388114130F100EE30F00052
:100EEC00F00B762FF10B762F00007208F000033018
:100EFC000310F00DFF3E031D7E2F0310700D8312A7
:100F0C0003138800081188154130F100EE30F00011
:100F1C00F00B8E2FF10B8E2F000083120313881110
:100F2C004130F100EE30F000F00B9A2FF10B9A2FBC
:100F3C000000080083160313880186010A128A1127
:100F4C00CF260A128A1183120313AF01B0010A12C1
:100F5C008A11C6260A128A11F500831203132F0870
:100F6C00203E84007508831380000130AF070318FE
:100F7C00B00A0030B0073008803AFF0080307F02A2
:100F8C00031DCA2F0D302F02031CCD2FCE2FAD2FDA
:100F9C00831203132F08203E8400831380010A124E
:100FAC008A11DE260A128A1183120313AF01B001D3
:100FBC00F02F2F08203E840000080A128A11062701
:100FCC000A128A11013083120313AF070318B00AF7
:100FDC000030B0072F08203E840083130008031D47
:100FEC00F82FF92FDF2F0A128A11002883010A1219
:040FFC008A11A02F87
:08400000FF3FFF3FFF3FFF3FC0
:02400E00FA3F77
:00000001FF
